:100000000C9434000C9482000C9451000C94510018
:100010000C9451000C9453000C9451000C9451001A
:100020000C9451000C9451000C9451000C9451000C
:100030000C9451000C9451000C9451000C945100FC
:100040000C9451000C9451000C9451000C945100EC
:100050000C9451000C9451000C9451000C945100DC
:100060000C9451000C94510011241FBECFEFD8E026
:10007000DEBFCDBF12E0A0E0B1E0E8EEF2E102C0E9
:1000800005900D92A63CB107D9F723E0A6ECB2E0AB
:1000900001C01D92A335B207E1F70E9425060C941A
:1000A00072090C9400001F920F920FB60F92112448
:1000B0002F933F938F939F9389B19091CB02982771
:1000C00093FB332730F98093CB0284FB222720F95E
:1000D00083FB882780F928278091490390914A0360
:1000E000231711F0019601C0019790934A03809362
:1000F00049039F918F913F912F910F900FBE0F90C9
:100100001F9018951F920F920FB60F9211248F9384
:1001100081E080933F038F910F900FBE0F901F904F
:100120001895539854985B9A5C9A88E180936D0077
:1001300084E080936800E9E6F0E080818460808359
:10014000E99A52985A9A808182608083E89A7894DA
:100150000895089508958FEF84B985B99FE197B9FF
:1001600018B81AB88BB90895F8948091D00290917C
:10017000D1021092D1021092D00278940895F8948E
:1001800080913F037894089589B186958170089590
:1001900089B18170089580917A00806C80937A0093
:1001A00080917A0086FDFCCF809178009091790053
:1001B0000895089508950895089508950895089557
:1001C000089585B9289A85E08A95F1F70000289866
:1001D0008FE891E00197F1F700C000000895CF93F8
:1001E000C82F807F0E94E1008C2F8295807FCF9165
:1001F0000C94E10082E00E94EF008FE39CE90197FC
:10020000F1F700C000000895CF93C82F807F82606F
:100210000E94E1008C2F8295807F8260CF910C94A8
:10022000E100CF93DF93EC018991882319F00E94BC
:100230000401FACFDF91CF910895CF93DF93CDB72B
:10024000DEB760970FB6F894DEBF0FBECDBF2FEFBD
:1002500080E792E0215080409040E1F700C000002C
:1002600080E30E94E1008FE19EE40197F1F700C076
:10027000000080E30E94E1008FE19EE40197F1F726
:1002800000C0000080E20E94EF008FE19EE4019731
:10029000F1F700C0000088E10E94EF008FE39CE9C5
:1002A0000197F1F700C000008CE00E94EF008FE39F
:1002B0009CE90197F1F700C0000086E00E94EF0082
:1002C0008FE39CE90197F1F700C0000081E00E94F4
:1002D000EF008FE39CE90197F1F700C000000E9456
:1002E000FA008FE39CE90197F1F700C0000080E17C
:1002F000E8ECF1E0DE01119601900D928A95E1F7AC
:10030000CE0101960E94110160960FB6F894DEBFEF
:100310000FBECDBFDF91CF9108950F931F93CF9361
:10032000DF93EC018C01005F1F4FC017D10721F054
:1003300089910E940401F9CFDF91CF911F910F9114
:1003400008950E94FA0082ED92E00E948D0187EEEE
:1003500092E00E948D0110924803089580910B0352
:10036000882311F0439A08954398089525E1AC013C
:10037000249FC001259F900D112440E150E08E5232
:100380009D4F0E94920681E080934803089508954E
:1003900080910603811104C080910B03882391F0A2
:1003A000449A8091440390914503892B61F4809194
:1003B0000B03811108C08DE48093E70281E08093F4
:1003C0004803089544980895CF93DF93EC01CB013F
:1003D000BA0128EE33E040E050E00E943D069F93D2
:1003E0008F937F936F935F934F933F932F9328ED5A
:1003F00031E03F932F9321E233E03F932F930E940C
:10040000A1068DB79EB70C960FB6F8949EBF0FBE8F
:100410008DBF61E273E0CE01DF91CF910C94B60104
:10042000AB01BC0180E090E00C94E401482FE92F7F
:1004300080914603909147030097E1F42BEE31E061
:100440003F932F931F928EE08F93EF934F938FEEF6
:1004500091E09F938F9381E293E09F938F930E940B
:10046000A1068DB79EB70A960FB6F8949EBF0FBE31
:100470008DBF089528E532E03F932F931F9226E029
:100480002F936AE070E00E9429069F938F937F93D9
:100490006F93EF934F9386EF91E09F938F9381E259
:1004A00093E09F938F930E94A1068DB79EB70E96FF
:1004B0000FB6F8949EBF0FBE8DBF089580910B03B9
:1004C000882311F084E501C082E58093F60281E083
:1004D00080934803089588E592E09F938F931F923D
:1004E00080E18F9381E092E09F938F9387EE92E07B
:1004F0009F938F930E94A10681E0809348038DB75C
:100500009EB708960FB6F8949EBF0FBE8DBF089594
:10051000CF93DF939C01EB01AC01407CFC01EF72B7
:10052000FF27EE0FFF1FEE0FFF1F4034510519F09C
:100530004038510519F4E856FE4F02C0E457FE4F0B
:1005400060817181828193812238310509F463C011
:100550004CF52534310544F423343105CCF52234EF
:10056000310509F458C0A8C0283431050CF0A4C0E6
:1005700088E592E09F938F931F9280E18F9381E0B3
:1005800092E09F938F9381E293E09F938F930E94D9
:10059000A1068DB79EB708960FB6F8949EBF0FBE02
:1005A0008DBFA5C0203C3105D1F124F4253831059B
:1005B0007CF082C0211541E0340789F1213041E00F
:1005C000340709F44FC0213C310509F075C04AC019
:1005D00028EE33E040E050E00E943D069F938F9369
:1005E0007F936F935F934F933F932F93DF93CF93BB
:1005F00087E192E09F938F9381E293E09F938F93A3
:100600000E94A1068DB79EB70E960FB6F8949EBFB6
:100610000FBE8DBF6CC0CE010E94160268C08091D3
:100620004303882319F025E032E002C02FE032E0D6
:100630003F932F931F928EE08F93DF93CF938FEE94
:1006400091E09F938F9381E293E09F938F930E9419
:10065000A1068DB79EB70A960FB6F8949EBF0FBE3F
:100660008DBF45C028E532E03F932F931F9222E0D3
:100670002F9328EE33E040E050E00E943D069F9328
:100680008F937F936F935F934F933F932F93DF935A
:10069000CF9389E292E09F938F9381E293E09F93BF
:1006A0008F930E94A1068DB79EB742960FB6F8941D
:1006B0009EBF0FBE8DBF1BC09F938F937F936F9381
:1006C0001F928EE08F93DF93CF938DE392E09F9301
:1006D0008F9381E293E09F938F930E94A1068DB741
:1006E0009EB70C960FB6F8949EBF0FBE8DBF61E209
:1006F00073E081E090E0DF91CF910C94B601E0913E
:100700004403F0914503CF0185549109EF72FF270F
:10071000EE0FFF1FE854FE4F0397D0F481818F93B3
:1007200080818F931F928EE08F9385E492E09F9358
:100730008F9381E293E09F938F930E94A1068DB7E0
:100740009EB708960FB6F8949EBF0FBE8DBF19C016
:1007500081818F9380818F931F928AE08F938CE4A5
:1007600092E09F938F9381E293E09F938F930E94F7
:10077000A1068DB79EB708960FB6F8949EBF0FBE20
:100780008DBF61E273E080E090E00E94B60167E512
:1007900072E080914403909145030C948802E091AB
:1007A0004403F0914503EF72FF27EE0FFF1FE8545B
:1007B000FE4F81818F9380818F931F928AE08F9368
:1007C0008AE592E09F938F9381E293E09F938F93CA
:1007D0000E94A10661E273E080E090E00E94B60111
:1007E0008DB79EB708960FB6F8949EBF0FBE8DBF0B
:1007F00065E672E080914403909145030C94880271
:10080000E0914403F0914503CF01805C9109029788
:10081000F8F4EF72FF27EE0FFF1FEC56FE4F8181B9
:100820008F9380818F931F928EE08F9385E492E067
:100830009F938F9381E293E09F938F930E94A106F1
:100840008DB79EB708960FB6F8949EBF0FBE8DBFAA
:1008500061E273E080E090E00E94B60167E572E03B
:1008600080914403909145030C948802E0914403E5
:10087000F0914503EF72FF27EE0FFF1FEC56FE4F7E
:1008800081818F9380818F931F928EE08F9388E672
:1008900092E09F938F9381E293E09F938F930E94C6
:1008A000A10661E273E080E090E00E94B6018DB79E
:1008B0009EB708960FB6F8949EBF0FBE8DBF65E633
:1008C00072E080914403909145030C94880228E1E2
:1008D00030E087FF02C0419A01C0419842E04A954A
:1008E000F1F700C0409A42E04A95F1F700C0409805
:1008F000660F771F881F991F215031092115310577
:1009000041F782E08A95F1F700C0429A42E04A95A9
:10091000F1F700C042980895CF92DF92EF92FF92D4
:100920000F931F9320910B03211104C0645B7E4041
:100930008140910929E130E040E050E00E943D060D
:10094000CA01B90120E130E040E050E00E943D06DC
:100950006B017C01DA01C9019F71AA27BB276627B9
:10096000782F892F9A2F97018601A2E0000F111F7F
:10097000221F331FAA95D1F7112722273327600F93
:10098000711F821F931F6F5F7F4F8F4F9F4F1F916C
:100990000F91FF90EF90DF90CF900C94670488EC5C
:1009A00092E3A0E0B0E08093020390930303A0934E
:1009B0000403B093050341984098429866E870E8B4
:1009C00083E490E00E946704609102037091030346
:1009D000809104039091050329E130E040E050E06C
:1009E0000E943D06B2E0220F331F441F551FBA95E7
:1009F000D1F74E5F5F4FCA01B9010E946704609151
:100A0000CC027091CD028091CE029091CF020E94D3
:100A10008C0462E870E883E490E00C94670488E159
:100A20009FECA3E1B0E08093100390931103A09397
:100A30001203B093130344EE5FEF6FEF7FEF409329
:100A400018035093190360931A0370931B03809348
:100A5000C6029093C702A093C802B093C90280E275
:100A600096EDA3E1B0E08093140390931503A09357
:100A70001603B093170385E090E0909309038093E9
:100A8000080310924E0310924B0310920B030E9426
:100A9000AB000E94CF040E941D010C949100809134
:100AA000440390914503807C8038910571F020F4D7
:100AB0008034910541F00895803C910541F0811505
:100AC000914039F008950C947F030C94CF030C945B
:100AD00000040C9436048091440390914503807C7B
:100AE00080389105B1F030F48034910579F487E4D1
:100AF00090E00895803C910531F08115914031F4EA
:100B000081E091E0089581EC90E008958AE992E017
:100B1000089584E890E0089509E1F02EC4EDD3E053
:100B20000E94B40090934A03809349030E94BF003F
:100B300080930A030E94C40080934E030E94C80061
:100B4000809307030E94CB0090E090934103809331
:100B5000400320910B0321113AC0209149033091A9
:100B60004A032115310599F1F29EA001F39E500D23
:100B70001124662757FD6095762F00911003109180
:100B800011032091120330911303400F511F621F74
:100B9000731F4093100350931103609312037093DB
:100BA00013038A019B01045B1E402140310900931D
:100BB000CC021093CD022093CE023093CF0240930B
:100BC0003B0350933C0360933D0370933E0320919D
:100BD000070320930B03222311F024E501C022E533
:100BE0002093FC029E01281B390BC90120910C03A4
:100BF00030910D03820F931F959587959093200355
:100C000080931F0390930D0380930C0341E0209188
:100C1000080330910903821793070CF040E04093DA
:100C20000603442311F08DE401C080E28093FE02AC
:100C300060913B0370913C0380913D0390913E0392
:100C40000E9410020E94A1016BCF0E940F050E941A
:100C50008C0597FB072E16F4009407D077FD09D07A
:100C60000E945C0607FC05D03EF4909581959F4F4D
:100C70000895709561957F4F0895052E97FB1EF49A
:100C800000940E94540657FD07D00E94700607FC8E
:100C900003D04EF40C945406509540953095219510
:100CA0003F4F4F4F5F4F0895909580957095619598
:100CB0007F4F8F4F9F4F0895AA1BBB1B51E107C069
:100CC000AA1FBB1FA617B70710F0A61BB70B881FDC
:100CD000991F5A95A9F780959095BC01CD0108956B
:100CE000A1E21A2EAA1BBB1BFD010DC0AA1FBB1F30
:100CF000EE1FFF1FA217B307E407F50720F0A21BA2
:100D0000B30BE40BF50B661F771F881F991F1A940E
:100D100069F760957095809590959B01AC01BD0138
:100D2000CF010895FB01DC014150504048F0019093
:100D30000D920020C9F701C01D9241505040E0F7CC
:100D40000895AEE0B0E0E7EAF6E00C9449090D89B9
:100D50001E8986E08C831A8309838FEF9FE79E8329
:100D60008D83AE01475E5F4F6F89788DCE0101960E
:100D70000E94C306EF81F885E00FF11F10822E96C6
:100D8000E4E00C946509ACE0B0E0E9ECF6E00C942A
:100D90003B097C016B018A01FC0117821682838169
:100DA00081FFBDC1CE0101964C01F7019381F6018F
:100DB00093FD859193FF81916F01882309F4ABC165
:100DC000853239F493FD859193FF81916F018532CE
:100DD00029F4B70190E00E94AB08E7CF512C312CE9
:100DE00020E02032A0F48B3269F030F4803259F0E8
:100DF000833269F420612CC08D3239F0803339F4AC
:100E0000216026C02260246023C0286021C027FD05
:100E100027C030ED380F3A3078F426FF06C0FAE0EC
:100E20005F9E300D1124532E13C08AE0389E300D82
:100E30001124332E20620CC08E3221F426FD6BC1AA
:100E4000206406C08C3611F4206802C0883641F454
:100E5000F60193FD859193FF81916F018111C1CFBF
:100E6000982F9F7D9554933028F40C5F1F4FFFE31C
:100E7000F9830DC0833631F0833771F0833509F083
:100E80005BC022C0F801808189830E5F1F4F44241C
:100E90004394512C540115C03801F2E06F0E711CBF
:100EA000F801A080B18026FF03C0652D70E002C06C
:100EB0006FEF7FEFC5012C870E94A0082C018301F2
:100EC0002C852F77222E17C03801F2E06F0E711C8F
:100ED000F801A080B18026FF03C0652D70E002C03C
:100EE0006FEF7FEFC5012C870E9495082C012C85A0
:100EF0002068222E830123FC1BC0832D90E048161E
:100F00005906B0F4B70180E290E00E94AB083A9431
:100F1000F4CFF50127FC859127FE81915F01B70190
:100F200090E00E94AB0831103A94F1E04F1A51085A
:100F30004114510471F7E5C0843611F0893639F552
:100F4000F80127FF07C060817181828193810C5F66
:100F50001F4F08C060817181882777FD8095982F89
:100F60000E5F1F4F2F76B22E97FF09C09095809588
:100F7000709561957F4F8F4F9F4F2068B22E2AE06A
:100F800030E0A4010E94DD08A82EA81844C08537CF
:100F900029F42F7EB22E2AE030E025C0F22FF97F0F
:100FA000BF2E8F36C1F018F4883579F0B4C0803781
:100FB00019F0883721F0AFC02F2F2061B22EB4FE78
:100FC0000DC08B2D8460B82E09C024FF0AC09F2F4E
:100FD0009660B92E06C028E030E005C020E130E080
:100FE00002C020E132E0F801B7FE07C060817181E4
:100FF000828193810C5F1F4F06C06081718180E008
:1010000090E00E5F1F4FA4010E94DD08A82EA818D3
:10101000FB2DFF77BF2EB6FE0BC02B2D2E7FA51408
:1010200050F4B4FE0AC0B2FC08C02B2D2E7E05C0C1
:101030007A2C2B2D03C07A2C01C0752C24FF0DC0F7
:10104000FE01EA0DF11D8081803311F4297E09C073
:1010500022FF06C07394739404C0822F867809F02F
:10106000739423FD13C020FF06C05A2C731418F488
:10107000530C5718732C731468F4B70180E290E096
:101080002C870E94AB0873942C85F5CF731410F451
:10109000371801C0312C24FF12C0B70180E390E063
:1010A0002C870E94AB082C8522FF17C021FF03C0AC
:1010B00088E590E002C088E790E0B7010CC0822F7D
:1010C000867859F021FD02C080E201C08BE227FD45
:1010D0008DE2B70190E00E94AB08A51438F4B70187
:1010E00080E390E00E94AB085A94F7CFAA94F401F1
:1010F000EA0DF11D8081B70190E00E94AB08A110BC
:10110000F5CF332009F451CEB70180E290E00E9480
:10111000AB083A94F6CFF7018681978102C08FEF32
:101120009FEF2C96E2E10C945709FC010590615069
:1011300070400110D8F7809590958E0F9F1F0895ED
:10114000FC016150704001900110D8F78095909596
:101150008E0F9F1F08950F931F93CF93DF93182F28
:10116000092FEB018B8181FD03C08FEF9FEF20C022
:1011700082FF10C04E815F812C813D814217530751
:101180007CF4E881F9819F012F5F3F4F39832883E9
:10119000108306C0E885F985812F0995892B29F7E9
:1011A0002E813F812F5F3F4F3F832E83812F902FD2
:1011B000DF91CF911F910F910895FA01AA2728304E
:1011C00051F1203181F1E8946F936E7F6E5F7F4F14
:1011D0008F4F9F4FAF4FB1E03ED0B4E03CD0670F90
:1011E000781F891F9A1FA11D680F791F8A1F911DE3
:1011F000A11D6A0F711D811D911DA11D20D009F433
:1012000068943F912AE0269F11243019305D319374
:10121000DEF6CF010895462F4770405D4193B3E05D
:101220000FD0C9F7F6CF462F4F70405D4A3318F004
:10123000495D31FD4052419302D0A9F7EACFB4E0B5
:10124000A6959795879577956795BA95C9F700976D
:101250006105710508959B01AC010A2E069457950E
:10126000479537952795BA95C9F7620F731F841F65
:10127000951FA01D08952F923F924F925F926F92FB
:101280007F928F929F92AF92BF92CF92DF92EF9216
:10129000FF920F931F93CF93DF93CDB7DEB7CA1B97
:1012A000DB0B0FB6F894DEBF0FBECDBF09942A88C2
:1012B000398848885F846E847D848C849B84AA846A
:1012C000B984C884DF80EE80FD800C811B81AA81F7
:1012D000B981CE0FD11D0FB6F894DEBF0FBECDBFC2
:0812E000ED010895F894FFCF21
:1012E800C832E02ECC29FFFF00009E02B102B502F1
:1012F800C602CF02E80202031D0339035603750331
:101308009303B403CE03E8030B04300455047C04B0
:10131800A404CE04F904260555058505B605EA0595
:101328001F063E06560677068F06B106CA06ED0664
:1013380007072B0746076B078807AE07CB07F30796
:1013480011083B088508D108F30820097209C70964
:10135800ED09FFFF00001010101000000000141429
:1013680014140000000015151515000001000000F8
:10137800E02E00006F027E0205000000E4FFFFFF80
:10138800000000000088130010AF130000000000E8
:1013980000000000000000008702920298029E02EE
:1013A800A902B202B702C002504133424A4920732F
:1013B800772076302E35200056464F2025346C7520
:1013C8002E2530336C75204D487A006F66660025EF
:1013D80073252D2A730025732533642E2564204830
:1013E8007A252A7300746F2074756E696E670074AD
:1013F8006F206D656E750025732530346C642E255D
:1014080030336C64204D487A00257325326C642E85
:101418002530336C64204D487A252A7300257325BE
:101428002D2A6C64003E20252D2A73003E2053652A
:101438007420252D2A730020200020205365742055
:10144800252D2A73003E20002020252D2A730053C5
:10145800656C65637420616374696F6E3A00504C03
:101468004C205265663A004D757465206C6576654A
:101478006C005368696674004354435353005363C4
:10148800616E205374617274005363616E20456EFF
:1014980064005363616E0053657474696E6773000A
:0614A8004261636B0000CD
:00000001FF
